:02000000E628F0
:10000800FF00030E8301BD000A08BE008A010B1D14
:100018001C283C1C17283B08B8003B08FF3C810003
:1000280087103C101B283808810087143C140B11DA
:0E0038003E088A003D0E8300FF0E7F0E090079
:100046000E3083120313FD00FD0B27280000080065
:10005600023083120313FB000430FC00BA30FD00AB
:10006600FD0B3328FC0B3328FB0B3328000008005C
:10007600C330831203139F0540309F05F03083166B
:100086009F0483129F174308F000F00D7010F00DC7
:10009600701070089F041F1423209F149F1C55285E
:1000A600000051281F101E08F100F00183161E08DB
:1000B60070048312C4007108C5000030C5044408EA
:0800C600F0004508F1000800FC
:1000CE0083120313F801F9011030FC00710DF80DC5
:1000DE00F90D7408F8027508031C750FF902031860
:1000EE007F287408F80775080318750FF9070310B1
:0A00FE00F00DF10DFC0B6D28080059
:10010800831603139C1C8A28000084288312430842
:1001180083169B008312440883169A009C131C15AF
:100128000B08F0008B1355309D00AA309D009C14DD
:0E013800F01BA0288B13A1288B171C110800A8
:1001460083120313430883169B009C131C141A087E
:08015600F1007108F00008003F
:10015E00831203132230FC00F801F901FA01FB01AE
:10016E00FC030319E5280310FB0CFA0CF90CF80C30
:10017E00F30CF20CF10CF00C031CB728FC03031962
:10018E00D7287408F80775080318750FF90776084D
:10019E000318760FFA0777080318770FFB07BB28AB
:1001AE007408F80775080318750FF9077608031811
:0E01BE00760FFA0777080318770FFB07080083
:1001CC000730831203139900053083169100051430
:1001DC00051583121F179F159F17831687108711FC
:1001EC008312871187143C14FA30B900B801BB0193
:1001FC00BA01DF30831681008B1604308312BF00E6
:10020C00871A13292B20C3013B207008C1007108E9
:10021C00C200C3014108C40084202B20C301A320C9
:10022C0070088312BF00C0010330C300A320700804
:10023C008312C0009016901017308E00FC308F0087
:10024C00B101B201C101C201AD01AE01AF01B001FA
:10025C00AC01B3016430B700DC30B5000530B6003A
:10026C008B1710140130BB000130B400FF30A30019
:10027C00FF30A200A001A1010C1C5129FC308F0001
:10028C0017308E000C10BA0A39083A02031C512997
:10029C0008308706BA01FE303B02031C5829403057
:1002AC00B90061293B083402031C5F295A30B9009C
:1002BC0061297830B9002D08A4002E08A5002F085C
:1002CC00A6003008A7004108A0004208A100B10117
:1002DC00B201C101C201AB01C3013B207008C107CF
:1002EC0071080318013EC2070230C3003B2070089E
:1002FC00B10771080318013EB2072B08003A031925
:10030C008929AB0A72294208003C031D8F29410838
:10031C003F02031896293F08C102031CC203982907
:10032C00C101C2014208003C031D9E294108003C4A
:10033C0003189F2A3408003A031DA6293B08B40071
:10034C004108F0004208F100F201F3013108F40019
:10035C003208F500F601F701AF207008AD00710806
:10036C00AE007208AF007308B00073082706031DB7
:10037C00C92972082606031DC92971082506031D03
:10038C00C92970082406031DE629AA014208210286
:10039C00031DD229410820020318D629A201E22903
:1003AC0021084202031DDC29200841020318E1291F
:1003BC00FF30A200E229A209B301F030B9004229B2
:1003CC0008302A020318EB29AA0A27083002031D59
:1003DC00F92926082F02031DF92925082E02031DD1
:1003EC00F92924082D0203189C2A3B08AC00A20909
:1003FC003308003A03199B2AAA012C08A800A9016A
:10040C003308A8070318A90AA80A0319A90AA90CF2
:10041C00A80CA9130330A8070318A90A2908003A45
:10042C00FF3003190030F1002808FF3CFF3003189F
:10043C000030F0007108F0040319292AFF30A800DD
:10044C000030A900312A013028020318312A01306A
:10045C00A8000030A9002808BB00B3012808FF3C05
:10046C00F0000030031C013EF101F1020330F007F3
:10047C000318F10A0630F400F50167207008A80093
:10048C007108A9003B08F200F30172087007A8007C
:10049C0071080318013E7307A9002908003AFF30C0
:1004AC0003190030F1002808FF3CFF30031800301E
:1004BC00F0007108F0040319662AFF30A800A901A6
:1004CC002808A30001303B02F0000030031C013E61
:1004DC00F101F1020830F0070318F10A0F30F400B3
:1004EC00F50167207008A8007108A9003B08A80056
:1004FC00A9017008A802031CA9037108A902290804
:10050C00003AFF3003190030F10001302802FF30AF
:10051C0003180030F0007108F0040319982A013018
:10052C00A800A9012808B40042299E2A3B08B30060
:10053C00AB2AAD01AE01AF01B0010830AA00FF300B
:10054C00A200B301B401FF30A30022080319BB2A97
:10055C002A082302F10071083B020318B82A2A0862
:10056C00BB07BA2A2308BB00CD2A2A08093CF00095
:10057C0070083407F1003B0871020318CB2A2A08D3
:10058C00093CF0007008BB02CD2A3408BB0042299C
:02059C00CE2A65
:02400E00F40FAD
:020000040000FA
:104200000400FF00FF000000FF00FF00FF00FF00B0
:10421000FF00FF00FF00FF00FF00FF00FF00FF00A6
:10422000FF00FF00FF00FF00FF00FF00FF00FF0096
:10423000FF00FF00FF00FF00FF00FF00FF00FF0086
:10424000FF00FF00FF00FF00FF00FF00FF00FF0076
:10425000FF00FF00FF00FF00FF00FF00FF00FF0066
:10426000FF00FF00FF00FF00FF00FF00FF00FF0056
:10427000FF00FF00FF00FF00FF00FF00FF00FF0046
:10428000FF00FF00FF00FF00FF00FF00FF00FF0036
:10429000FF00FF00FF00FF00FF00FF00FF00FF0026
:1042A000FF00FF00FF00FF00FF00FF00FF00FF0016
:1042B000FF00FF00FF00FF00FF00FF00FF00FF0006
:1042C000FF00FF00FF00FF00FF00FF00FF00FF00F6
:1042D000FF00FF00FF00FF00FF00FF00FF00FF00E6
:1042E000FF00FF00FF00FF00FF00FF00FF00FF00D6
:1042F000FF00FF00FF00FF00FF00FF00FF00FF00C6
:00000001FF

