:02000000F228E4
:10000800FF00030E8301BE000A08BD008A010B1D14
:100018001C283C1C17283B08B8003B08FF3C810003
:1000280087103C101B283808810087143C140B11DA
:0E0038003D088A003E0E8300FF0E7F0E090079
:100046000E3083120313FD00FD0B27280000080065
:100056001A3083120313FC00F830FD00FD0B312823
:08006600FC0B3128000008002A
:10006E00023083120313FB000430FC00BA30FD0093
:10007E00FD0B3F28FC0B3F28FB0B3F280000080020
:10008E00C330831203139F0540309F05F030831653
:10009E009F0483129F174308F000F00D7010F00DAF
:1000AE00701070089F041F1423209F149F1C61283A
:1000BE0000005D281F101E08F100F00183161E08B7
:1000CE0070048312C4007108C5000030C5044408D2
:0800DE00F0004508F1000800E4
:1000E60083120313F801F9011030FC00710DF80DAD
:1000F600F90D7408F8027508031C750FF902031848
:100106008B287408F80775080318750FF90703108C
:0A011600F00DF10DFC0B7928080034
:10012000831603139C1C9628000090288312430812
:1001300083169B008312440883169A009C131C1597
:100140000B08F0008B1355309D00AA309D009C14C5
:0E015000F01BAC288B13AD288B171C11080078
:10015E0083120313430883169B009C131C141A0866
:08016E00F1007108F000080027
:10017600831203132230FC00F801F901FA01FB0196
:10018600FC030319F1280310FB0CFA0CF90CF80C0C
:10019600F30CF20CF10CF00C031CC328FC0303193E
:1001A600E3287408F80775080318750FF907760829
:1001B6000318760FFA0777080318770FFB07C72887
:1001C6007408F80775080318750FF90776080318F9
:0E01D600760FFA0777080318770FFB0708006B
:1001E4000730831203139900053083169100051418
:1001F400051583121F179F159F1783168710071164
:1002040087158312071187143C14FA30B900B8011A
:10021400BB01BA01DF30831681008B1604308312D0
:10022400BF002B20871921293720C30147207008DC
:10023400C1007108C200C3014108C40090203720E6
:10024400C301AF2070088312BF00C0010330C30094
:10025400AF2070088312C0009016901017308E00E3
:10026400FC308F00B101B201C101C201AD01AE0188
:10027400AF01B001AC01B3016430B700DC30B500AC
:100284000530B6008B1710140130BB000130B400E8
:10029400FF30A300FF30A200A001A1010C1C5F29C4
:1002A400FC308F0017308E000C10BA0A39083A025D
:1002B400031C5F2904308706BA01FE303B02031C8D
:1002C40066294030B9006F293B083402031C6D29AC
:1002D4005A30B9006F297830B9002D08A4002E08CF
:1002E400A5002F08A6003008A7004108A000420876
:1002F400A100B101B201C101C201AB01C301472098
:100304007008C10771080318013EC2070230C30018
:1003140047207008B10771080318013EB2072B0883
:10032400003A03199729AB0A80294208003C031DAF
:100334009D2941083F020318A4293F08C102031C58
:10034400C203A629C101C2014208003C031DAC2915
:100354004108003C0318AD2A3408003A031DB429AF
:100364003B08B4004108F0004208F100F201F30137
:100374003108F4003208F500F601F701BB207008DB
:10038400AD007108AE007208AF007308B0007308C6
:100394002706031DD72972082606031DD7297108CD
:1003A4002506031DD72970082406031DF429AA0174
:1003B40042082102031DE029410820020318E42910
:1003C400A201F02921084202031DEA292008410262
:1003D4000318EF29FF30A200F029A209B301F0307D
:1003E400B900502908302A020318F929AA0A270853
:1003F4003002031D072A26082F02031D072A250899
:100404002E02031D072A24082D020318AA2A3B08DA
:10041400AC00A2093308003A0319A92AAA012C083E
:10042400A800A9013308A8070318A90AA80A0319F0
:10043400A90AA90CA80CA9130330A8070318A90A30
:100444002908003AFF3003190030F1002808FF3C66
:10045400FF3003180030F0007108F0040319372A44
:10046400FF30A8000030A9003F2A013028020318F9
:100474003F2A0130A8000030A9002808BB00B301BE
:100484002808FF3CF0000030031C013EF101F1029A
:100494000330F0070318F10A0630F400F501732065
:1004A4007008A8007108A9003B08F200F301720863
:1004B4007007A80071080318013E7307A9002908F2
:1004C400003AFF3003190030F1002808FF3CFF30E8
:1004D40003180030F0007108F0040319742AFF3087
:1004E400A800A9012808A30001303B02F000003055
:1004F400031C013EF101F1020830F0070318F10A70
:100504000F30F400F50173207008A8007108A900E9
:100514003B08A800A9017008A802031CA9037108DC
:10052400A9022908003AFF3003190030F100013014
:100534002802FF3003180030F0007108F00403199A
:10054400A62A0130A800A9012808B4005029AC2A21
:100554003B08B300B92AAD01AE01AF01B0010830C8
:10056400AA00FF30A200B301B401FF30A3002208A7
:100574000319C92A2A082302F10071083B0203184F
:10058400C62A2A08BB07C82A2308BB00DB2A2A0874
:10059400093CF00070083407F1003B0871020318AD
:1005A400D92A2A08093CF0007008BB02DB2A340867
:0605B400BB005029DC2A07
:02400E00D40FCD
:020000040000FA
:104200000400FF00FF000000FF00FF00FF00FF00B0
:10421000FF00FF00FF00FF00FF00FF00FF00FF00A6
:10422000FF00FF00FF00FF00FF00FF00FF00FF0096
:10423000FF00FF00FF00FF00FF00FF00FF00FF0086
:10424000FF00FF00FF00FF00FF00FF00FF00FF0076
:10425000FF00FF00FF00FF00FF00FF00FF00FF0066
:10426000FF00FF00FF00FF00FF00FF00FF00FF0056
:10427000FF00FF00FF00FF00FF00FF00FF00FF0046
:10428000FF00FF00FF00FF00FF00FF00FF00FF0036
:10429000FF00FF00FF00FF00FF00FF00FF00FF0026
:1042A000FF00FF00FF00FF00FF00FF00FF00FF0016
:1042B000FF00FF00FF00FF00FF00FF00FF00FF0006
:1042C000FF00FF00FF00FF00FF00FF00FF00FF00F6
:1042D000FF00FF00FF00FF00FF00FF00FF00FF00E6
:1042E000FF00FF00FF00FF00FF00FF00FF00FF00D6
:1042F000FF00FF00FF00FF00FF00FF00FF00FF00C6
:00000001FF

