:02000000D42802
:10000800FF00030E8301C1000A08C2008A010B1D0C
:100018001D2802308706871819280130A8003B08D8
:10002800BC003B08FF3C81001C283C08193E8100AD
:100038000B110C1C2728F8308F0030308E000C1064
:10004800BE0A0319BF0A42088A00410E8300FF0E48
:040058007F0E09000E
:10005C000E3083120313FD00FD0B32280000080044
:10006C00023083120313FB000430FC00BA30FD0095
:10007C00FD0B3E28FC0B3E28FB0B3E280000080025
:10008C00C330831203139F0540309F05F030831655
:10009C009F0483129F174508F000F00D7010F00DAF
:1000AC00701070089F041F142E209F149F1C602832
:1000BC0000005C281F101E08F100F00183161E08BA
:1000CC0070048312C6007108C7000030C7044608CC
:0800DC00F0004708F1000800E4
:1000E400831203132230FC00F801F901FA01FB0129
:1000F400FC030319A8280310FB0CFA0CF90CF80CE8
:10010400F30CF20CF10CF00C031C7A28FC03031919
:100114009A287408F80775080318750FF907760804
:100124000318760FFA0777080318770FFB077E2862
:100134007408F80775080318750FF907760803188B
:0E014400760FFA0777080318770FFB070800FD
:10015200831603139C1CAF280000A92883124508AC
:1001620083169B008312460883169A009C131C1563
:100172000B08F0008B1355309D00AA309D009C1493
:0E018200F01BC5288B13C6288B171C11080014
:1001900083120313450883169B009C131C141A0832
:0801A000F1007108F0000800F5
:1001A8000730831203139900053083169100051454
:1001B8008514051583121F179F159F17831687101F
:1001C800071287158312071287146430C000BC0118
:1001D800BB01BE01BF01DF30831681008B1683127D
:1001E800BD013620362064008719152936203620AF
:1001F800C50146207008C3007108C400C501430842
:10020800C600A920362007160830FB001B30FC006A
:100218002730FD00FD0B0E29FC0B0E29FB0B0E29C8
:10022800071264003620C501C82070088312BD007B
:1002380070081F3C03182129BD019012101290105C
:1002480030308E00F8308F000C10B201B301C301BA
:10025800C401AE01AF01B001B10183160C140B1734
:100268008B17831210146E30BB00AD01AB01AC01CB
:10027800A401A501A201A301A001A1016400043009
:10028800FB000C30FC003330FD00FD0B4929FC0B52
:100298004929FB0B49290000000007160630FB001E
:1002A8001330FC00AD30FD00FD0B5829FC0B58291C
:1002B800FB0B582900000000071264003E08A90043
:1002C8003F08AA0022083E02F1002308031C013E51
:1002D8003F02F2007208003C031D742971084002B5
:1002E80003187C292908A2002A08A30010308706D1
:1002F800A8012B08A6002C08A7003208AB00330879
:10030800AC002808003A031985290230C5004620A8
:100318007008B2007108B300C50146207008C30018
:100328007108C400B4010230C50046207008A90055
:100338007108AA00C50146207008B9007108BA0002
:100348002908B2072A080318013EB307B30CB20CF8
:10035800B3137008C30771080318013EC407C40C1F
:10036800C30CC4133408043A0319BC29B40A9729E6
:10037800B20DB30D3210B20DB30D32103E08A90004
:100388003F08AA0024083E02F1002508031C013E8C
:100398003F02F20000307202031DD4290A307102B4
:1003A8000318D729722A64002908A4002A08A5007E
:1003B8002E08B5002F08B6003008B7003108B8007D
:1003C8003208F0003308F100F201F3014308F400A9
:1003D8004408F500F601F70172207008AE007108B4
:1003E800AF007208B0007308B1003E08A9003F08CA
:1003F800AA003C086E3C0318192A20082902F100BB
:100408002108031C013E2A02F2007208083C031D61
:100418000F2A7108CA3C0318182A2908A0002A08BC
:10042800A1003D08C300C4011D2A2908A0002A080C
:10043800A1004408003C031D232A43083D02031879
:100448004F2A31083806031D332A30083706031DA2
:10045800332A2F083606031D332A2E083506031DB6
:10046800382AFA30C000722A38083102031D462A99
:1004780037083002031D462A36082F02031D462A74
:1004880035082E0203184C2A9630C000AD094E2AB2
:10049800C830C0005B2A6430C0006E30BB00AD01BC
:1004A800AE01AF01B001B101C301C401722A2D0828
:1004B8000319682AE6303B020318642ABB0A672A34
:1004C800E630BB00AD01722A3B08013C03186E2AD6
:1004D800BB03722A0130BB00FF30AD006229732ACA
:02400E00DC0CC8
:020000040000FA
:104200000400FF00FF000000FF00FF00FF00FF00B0
:10421000FF00FF00FF00FF00FF00FF00FF00FF00A6
:10422000FF00FF00FF00FF00FF00FF00FF00FF0096
:10423000FF00FF00FF00FF00FF00FF00FF00FF0086
:10424000FF00FF00FF00FF00FF00FF00FF00FF0076
:10425000FF00FF00FF00FF00FF00FF00FF00FF0066
:10426000FF00FF00FF00FF00FF00FF00FF00FF0056
:10427000FF00FF00FF00FF00FF00FF00FF00FF0046
:10428000FF00FF00FF00FF00FF00FF00FF00FF0036
:10429000FF00FF00FF00FF00FF00FF00FF00FF0026
:1042A000FF00FF00FF00FF00FF00FF00FF00FF0016
:1042B000FF00FF00FF00FF00FF00FF00FF00FF0006
:1042C000FF00FF00FF00FF00FF00FF00FF00FF00F6
:1042D000FF00FF00FF00FF00FF00FF00FF00FF00E6
:1042E000FF00FF00FF00FF00FF00FF00FF00FF00D6
:1042F000FF00FF00FF00FF00FF00FF00FF00FF00C6
:00000001FF

