:02000000F228E4
:10000800FF00030E8301BF000A08BE008A010B1D12
:100018001C283D1C17283C08B9003C08FF3C8100FF
:1000280087103D101B283908810087143D140B11D7
:0E0038003E088A003F0E8300FF0E7F0E090077
:100046000E3083120313FD00FD0B27280000080065
:100056001A3083120313FC00F830FD00FD0B312823
:08006600FC0B3128000008002A
:10006E00023083120313FB000430FC00BA30FD0093
:10007E00FD0B3F28FC0B3F28FB0B3F280000080020
:10008E00C330831203139F0540309F05F030831653
:10009E009F0483129F174308F000F00D7010F00DAF
:1000AE00701070089F041F1423209F149F1C61283A
:1000BE0000005D281F101E08F100F00183161E08B7
:1000CE0070048312C4007108C5000030C5044408D2
:0800DE00F0004508F1000800E4
:1000E60083120313F801F9011030FC00710DF80DAD
:1000F600F90D7408F8027508031C750FF902031848
:100106008B287408F80775080318750FF90703108C
:0A011600F00DF10DFC0B7928080034
:10012000831603139C1C9628000090288312430812
:1001300083169B008312440883169A009C131C1597
:100140000B08F0008B1355309D00AA309D009C14C5
:0E015000F01BAC288B13AD288B171C11080078
:10015E0083120313430883169B009C131C141A0866
:08016E00F1007108F000080027
:10017600831203132230FC00F801F901FA01FB0196
:10018600FC030319F1280310FB0CFA0CF90CF80C0C
:10019600F30CF20CF10CF00C031CC328FC0303193E
:1001A600E3287408F80775080318750FF907760829
:1001B6000318760FFA0777080318770FFB07C72887
:1001C6007408F80775080318750FF90776080318F9
:0E01D600760FFA0777080318770FFB0708006B
:1001E4000730831203139900053083169100051418
:1001F4008514051583121F179F159F1783168710E3
:10020400071287158312071287143D14FA30BA00B7
:10021400B901BC01BB01DF30831681008B160430A9
:100224008312C0002B20871922293720C3014720BD
:100234007008C1007108C200C3014108C4009020C5
:100244003720C301AF2070088312C000B801033007
:10025400C300AF2070088312B800901690101730B6
:100264008E00FC308F00B101B201C101C201AD01A9
:10027400AE01AF01B001AC01B3016430B700DC30B2
:10028400B5000530B6008B1710140130BC000130E6
:10029400B400FF30A300FF30A200A001A1010C1C98
:1002A4006029FC308F0017308E000C10BB0A3A080E
:1002B4003B02031C602910308706BB01FE303C0260
:1002C400031C67294030BA0070293C083402031C1F
:1002D4006E295A30BA0070297830BA002D08A4006B
:1002E4002E08A5002F08A6003008A7004108A0008A
:1002F4004208A100B101B201C101C201AB01C301B5
:1003040047207008C10771080318013EC207023074
:10031400C30047207008B10771080318013EB207F3
:100324002B08003A03199829AB0A81294208003C9A
:10033400031D9E29410840020318A5294008C10253
:10034400031CC203A729C101C2014208003C031DCA
:10035400AD294108003C0318AE2A3408003A031DB5
:10036400B5293C08B4004108F0004208F100F2014C
:10037400F3013108F4003208F500F601F701BB205F
:100384007008AD007108AE007208AF007308B000C9
:1003940073082706031DD82972082606031DD829C9
:1003A40071082506031DD82970082406031DF529A4
:1003B400AA0142082102031DE12941082002031871
:1003C400E529A201F12921084202031DEB29200895
:1003D40041020318F029FF30A200F129A209B30158
:1003E400F030BA00512908302A020318FA29AA0A5F
:1003F40027083002031D082A26082F02031D082A95
:1004040025082E02031D082A24082D020318AB2AEE
:100414003C08AC00A2093308003A0319AA2AAA012D
:100424002C08A800A9013308A8070318A90AA80AD8
:100434000319A90AA90CA80CA9130330A8070318C7
:10044400A90A2908003AFF3003190030F1002808EE
:10045400FF3CFF3003180030F0007108F00403196A
:10046400382AFF30A8000030A900402A01302802B1
:100474000318402A0130A8000030A9002808BC0055
:10048400B3012808FF3CF0000030031C013EF101D9
:10049400F1020330F0070318F10A0630F400F50105
:1004A40073207008A8007108A9003C08F200F30149
:1004B40072087007A80071080318013E7307A900A9
:1004C4002908003AFF3003190030F1002808FF3CE6
:1004D400FF3003180030F0007108F0040319752A86
:1004E400FF30A800A9012808A30001303C02F00055
:1004F4000030031C013EF101F1020830F00703183B
:10050400F10A0F30F400F50173207008A800710897
:10051400A9003C08A800A9017008A802031CA903AB
:100524007108A9022908003AFF3003190030F100CC
:1005340001302802FF3003180030F0007108F00485
:100544000319A72A0130A800A9012808B4005129D9
:10055400AD2A3C08B300BA2AAD01AE01AF01B00127
:100564000830AA00FF30A200B301B401FF30A30099
:1005740022080319CA2A2A082302F10071083C023E
:100584000318C72A2A08BC07C92A2308BC00DC2A86
:100594002A08093CF00070083407F1003C08710295
:1005A4000318DA2A2A08093CF0007008BC02DC2A85
:0805B4003408BC005129DD2AC6
:02400E00D40FCD
:020000040000FA
:104200000400FF00FF000000FF00FF00FF00FF00B0
:10421000FF00FF00FF00FF00FF00FF00FF00FF00A6
:10422000FF00FF00FF00FF00FF00FF00FF00FF0096
:10423000FF00FF00FF00FF00FF00FF00FF00FF0086
:10424000FF00FF00FF00FF00FF00FF00FF00FF0076
:10425000FF00FF00FF00FF00FF00FF00FF00FF0066
:10426000FF00FF00FF00FF00FF00FF00FF00FF0056
:10427000FF00FF00FF00FF00FF00FF00FF00FF0046
:10428000FF00FF00FF00FF00FF00FF00FF00FF0036
:10429000FF00FF00FF00FF00FF00FF00FF00FF0026
:1042A000FF00FF00FF00FF00FF00FF00FF00FF0016
:1042B000FF00FF00FF00FF00FF00FF00FF00FF0006
:1042C000FF00FF00FF00FF00FF00FF00FF00FF00F6
:1042D000FF00FF00FF00FF00FF00FF00FF00FF00E6
:1042E000FF00FF00FF00FF00FF00FF00FF00FF00D6
:1042F000FF00FF00FF00FF00FF00FF00FF00FF00C6
:00000001FF

