:02000000F228E4
:10000800FF00030E8301BF000A08BE008A010B1D12
:100018001C283D1C17283C08B9003C08FF3C8100FF
:1000280087103D101B283908810087143D140B11D7
:0E0038003E088A003F0E8300FF0E7F0E090077
:100046000E3083120313FD00FD0B27280000080065
:100056001A3083120313FC00F830FD00FD0B312823
:08006600FC0B3128000008002A
:10006E00023083120313FB000430FC00BA30FD0093
:10007E00FD0B3F28FC0B3F28FB0B3F280000080020
:10008E00C330831203139F0540309F05F030831653
:10009E009F0483129F174308F000F00D7010F00DAF
:1000AE00701070089F041F1423209F149F1C61283A
:1000BE0000005D281F101E08F100F00183161E08B7
:1000CE0070048312C4007108C5000030C5044408D2
:0800DE00F0004508F1000800E4
:1000E60083120313F801F9011030FC00710DF80DAD
:1000F600F90D7408F8027508031C750FF902031848
:100106008B287408F80775080318750FF90703108C
:0A011600F00DF10DFC0B7928080034
:10012000831603139C1C9628000090288312430812
:1001300083169B008312440883169A009C131C1597
:100140000B08F0008B1355309D00AA309D009C14C5
:0E015000F01BAC288B13AD288B171C11080078
:10015E0083120313430883169B009C131C141A0866
:08016E00F1007108F000080027
:10017600831203132230FC00F801F901FA01FB0196
:10018600FC030319F1280310FB0CFA0CF90CF80C0C
:10019600F30CF20CF10CF00C031CC328FC0303193E
:1001A600E3287408F80775080318750FF907760829
:1001B6000318760FFA0777080318770FFB07C72887
:1001C6007408F80775080318750FF90776080318F9
:0E01D600760FFA0777080318770FFB0708006B
:1001E4000730831203139900053083169100051418
:1001F4008514051583121F179F159F1783168710E3
:10020400071287158312071287143D14FA30BA00B7
:10021400B901BC01BB01DF30831681008B160430A9
:100224008312C0002B208719242937203720372038
:10023400C30147207008C1007108C200C30141080E
:10024400C40090203720C301AF2070088312C0007F
:10025400B8010330C300AF2070088312B8009016B1
:10026400901017308E00FC308F00B101B201C10133
:10027400C201AD01AE01AF01B001AC01B301643004
:10028400B700DC30B5000530B6008B171014013010
:10029400BC000130B400FF30A300FF30A200A00175
:1002A400A1010C1C6229FC308F0017308E000C1049
:1002B400BB0A3A083B02031C622910308706BB01C3
:1002C400FE303C02031C69294030BA0072293C0804
:1002D4003402031C70295A30BA0072297830BA00EB
:1002E4002D08A4002E08A5002F08A6003008A7009A
:1002F4004108A0004208A100B101B201C101C2013C
:10030400AB01C30147207008C10771080318013EFF
:10031400C2070230C30047207008B10771080318F0
:10032400013EB2072B08003A03199A29AB0A832924
:100334004008F100F20142087202031DA32941089A
:1003440071020318AF294008F000F1017008C102DE
:10035400031CC2037108C202B129C101C2014208CF
:10036400003C031DB7294108003C0318B82A34088F
:10037400003A031DBF293C08B4004108F0004208BC
:10038400F100F201F3013108F4003208F500F6013E
:10039400F701BB207008AD007108AE007208AF0011
:1003A4007308B00073082706031DE22972082606A5
:1003B400031DE22971082506031DE229700824069D
:1003C400031DFF29AA0142082102031DEB2941084C
:1003D40020020318EF29A201FB2921084202031D70
:1003E400F529200841020318FA29FF30A200FB294D
:1003F400A209B301F030BA00532908302A020318C5
:10040400042AAA0A27083002031D122A26082F02EA
:10041400031D122A25082E02031D122A24082D0268
:100424000318B52A3C08AC00A2093308003A0319A2
:10043400B42AAA012C08A800A9013308A8070318A4
:10044400A90AA80A0319A90AA90CA80CA91303301C
:10045400A8070318A90A2908003AFF300319003035
:10046400F1002808FF3CFF3003180030F000710849
:10047400F0040319422AFF30A8000030A9004A2AD8
:100484000130280203184A2A0130A8000030A900CC
:100494002808BC00B3012808FF3CF0000030031C0E
:1004A400013EF101F1020330F0070318F10A0630AE
:1004B400F400F50173207008A8007108A9003C0835
:1004C400F200F30172087007A80071080318013ED6
:1004D4007307A9002908003AFF3003190030F1001E
:1004E4002808FF3CFF3003180030F0007108F004C6
:1004F40003197F2AFF30A800A9012808A3000130AE
:100504003C02F0000030031C013EF101F10208300E
:10051400F0070318F10A0F30F400F5017320700896
:10052400A8007108A9003C08A800A9017008A80245
:10053400031CA9037108A9022908003AFF30031912
:100544000030F10001302802FF3003180030F000C1
:100554007108F0040319B12A0130A800A901280880
:10056400B4005329B72A3C08B300C42AAD01AE0134
:10057400AF01B0010830AA00FF30A200B301B401FA
:10058400FF30A30022080319D42A2A082302F10009
:1005940071083C020318D12A2A08BC07D32A23086D
:1005A400BC00E62A2A08093CF00070083407F10070
:1005B4003C0871020318E42A2A08093CF000700878
:0C05C400BC02E62A3408BC005329E72AD8
:02400E00D40FCD
:020000040000FA
:104200000400FF00FF000000FF00FF00FF00FF00B0
:10421000FF00FF00FF00FF00FF00FF00FF00FF00A6
:10422000FF00FF00FF00FF00FF00FF00FF00FF0096
:10423000FF00FF00FF00FF00FF00FF00FF00FF0086
:10424000FF00FF00FF00FF00FF00FF00FF00FF0076
:10425000FF00FF00FF00FF00FF00FF00FF00FF0066
:10426000FF00FF00FF00FF00FF00FF00FF00FF0056
:10427000FF00FF00FF00FF00FF00FF00FF00FF0046
:10428000FF00FF00FF00FF00FF00FF00FF00FF0036
:10429000FF00FF00FF00FF00FF00FF00FF00FF0026
:1042A000FF00FF00FF00FF00FF00FF00FF00FF0016
:1042B000FF00FF00FF00FF00FF00FF00FF00FF0006
:1042C000FF00FF00FF00FF00FF00FF00FF00FF00F6
:1042D000FF00FF00FF00FF00FF00FF00FF00FF00E6
:1042E000FF00FF00FF00FF00FF00FF00FF00FF00D6
:1042F000FF00FF00FF00FF00FF00FF00FF00FF00C6
:00000001FF

